:100000000C9435000C945D000C945D000C945D0024
:100010000C94C4090C94E8090C94A0090C945D009C
:100020000C945D000C945D000C945D000C945D00DC
:100030000C945D000C945D000C945D000C945D00CC
:100040000C9437090C945D000C945D000C945D00D9
:100050000C945D000C945D000C945D000C945D00AC
:100060000C945D000C945D00890A11241FBECFEF33
:10007000D4E0DEBFCDBF13E0A0E0B1E0E4EFF6E1F5
:1000800002C005900D92AC34B107D9F713E0ACE48F
:10009000B3E001C01D92A539B107E1F710E0CAE64F
:1000A000D0E004C02297FE010E94430BC836D1075E
:1000B000C9F70E940C0A0C94780B0C940000DC0128
:1000C00020E030E010C0C901880F991F63E0220FC3
:1000D000331F6A95E1F7280F391F240F351F31961A
:1000E0001196FC93EE93ED91FC911197309761F08E
:1000F0008081482F50E0405350404A30510518F35A
:100100008D3369F3803259F3C901089520E090E0FE
:1001100080FF02C0449A01C04498439A273009F0F6
:1001200043982F5F283019F095958795F0CF089563
:100130004398459808950E94980043983C9A4498A3
:10014000459A0895DF93CF930F92CDB7DEB7898399
:100150000E949B0089810E9486003C98439898E009
:1001600080E0869534998068439A43989150C9F706
:1001700089830E9498003C9A89810F90CF91DF91EA
:100180000895DF93CF9300D0CDB7DEB76A8389831C
:100190000E949B0089810E94860043986A81862F75
:1001A0000E94860043980E9498000F900F90CF9174
:1001B000DF910895982F92959F70990F292F220F04
:1001C000220F290F8F70820F08956AE00E94D10AD2
:1001D0008295807F890F0895CF92EF92FF920F93BF
:1001E0001F93DF93CF9300D0CDB7DEB7182FF62E35
:1001F0008EE860E029834A830E94C1008E2D0E9410
:10020000E500682F80E80E94C100802F0E94E50071
:10021000682F82E80E94C1002981822F0E94E50098
:10022000682F84E80E94C1004A81842F0E94E50063
:10023000682F86E80E94C1008F2D0E94E500682F7C
:1002400088E80E94C1008C2D0E94E500682F8AE892
:100250000E94C100812F0E94E500682F8CE80E9457
:10026000C1008EE860E80E94C1000F900F90CF910E
:10027000DF911F910F91FF90EF90CF900895EF9233
:10028000FF920F931F93CF93DF9381E80E94A20008
:100290008F770E94DA00C82F83E80E94A2000E9494
:1002A000DA00D82F85E80E94A2008F730E94DA003E
:1002B000682F70E080E090E020E13EE040E050E018
:1002C0000E94B20A7B018C016D2F70E080E090E00B
:1002D0002CE330E040E050E00E94B20AE60EF71E48
:1002E000081F191FEC0EF11C011D111DB701C801DB
:1002F000DF91CF911F910F91FF90EF900895EF92B2
:10030000FF920F931F937B018C010E943F019B0181
:10031000AC016E157F05800791072CF02E193F095F
:10032000400B510B08C02E193F09400B510B2058B0
:100330003E4A4E4F5F4FB901CA011F910F91FF9086
:10034000EF9008952F923F924F925F926F927F921B
:100350008F929F92AF92BF92CF92DF92EF92FF92D5
:100360000F931F93DF93CF93CDB7DEB72A970FB6C6
:10037000F894DEBF0FBECDBFCB017A8369830097AF
:1003800009F469C1E981FA812081222309F463C15A
:10039000CF0101962A3389F49A8389830FE310E011
:1003A00086E090E09E838D83A4E0B0E0BC83AB83C5
:1003B0007E010894E11CF11C37C09A838983E2CF47
:1003C0008C3221F43196FA83E9832EC0843629F0E9
:1003D0008F3661F08236D9F412C03196FA83E98300
:1003E000C7010E945F009C838B831EC03196FA83F5
:1003F000E983C7010E945F009E838D8315C03196FB
:10040000FA83E983C7010E945F008C010DC0E98176
:10041000FA818081882341F08C3231F08A3321F0D7
:100420003196FA83E983F3CFE981FA8180818823C9
:1004300009F4D6C08A3309F4D3C0803209F6C2CF9A
:1004400090E0C0978A30910528F4C3010E945F00B4
:100450008C0102C00B811C81E980FA80F701808148
:10046000882309F4F8C067010894C11CD11CDA8202
:10047000C98290E00E94470BD70111969C91119779
:10048000992309F4E8C0B82E933239F4B0E8BB2AB6
:100490000894C11CD11CDA82C982E981FA81808169
:1004A0008E3261F4C801880F991F880F991FB1011E
:1004B0000E94DD0A8B013196FA83E983E981FA8192
:1004C000808190E0C0978A30910528F4C3010E9492
:1004D0005F004C0102C08D809E80E981FA8180819D
:1004E0008E3261F4C801880F991F880F991FB101DE
:1004F0000E94DD0A8B013196FA83E983E981FA8152
:100500008081882309F486C08C32A9F3803209F0F7
:1005100081C0F1CF9401255030402430310530F5B1
:10052000249DF001259DF00D349DF00D1124E2591C
:10053000FD4F80E090E040814B1599F4FC01EE0FF7
:10054000FF1FE80FF91F249DC001259D900D349DCC
:10055000900D1124E80FF91FE259FD4F21813281DE
:1005600007C0019633968C30910529F720E030E0E2
:10057000109281002115310501F140E050E060E06A
:1005800079E08DE390E00E94040B215030403093DD
:100590008900209388001092850010928400A09218
:1005A0008000E9E1E093810008C08FEC97E00197BB
:1005B000F1F700C000000150104001151105A9F726
:1005C0001092810010928900109288001092800091
:1005D000299AA8958091600080648093600013C080
:1005E0003E010894611C711C83E0282E312CC80147
:1005F000A0E0B0E08F839887A987BA87B4E24B2E3A
:10060000512CA3E4AA2EE981FA818081882309F084
:1006100017CF21C060E67AEE80E090E02F81388528
:1006200049855A850E94260B69017A01F2E0CC0CBB
:10063000DD1CEE1CFF1CFA95D1F7980140E050E05C
:10064000C701B6010E94260B022F132F9B2D903558
:1006500009F060CF8BCF2A960FB6F894DEBF0FBE9D
:10066000CDBFCF91DF911F910F91FF90EF90DF9061
:10067000CF90BF90AF909F908F907F906F905F9042
:100680004F903F902F900895FC0182819381680FD5
:10069000791F738362838481958101969583848316
:1006A0008034910559F4A6E076956795AA95E1F70F
:1006B0007183608315821482138212820895FC0173
:1006C0001182108281E082835C9A0895E1EBF0E070
:1006D00010821092B2001092B30023E32093B00076
:1006E0002CE0208326E82093B4000E945F03089545
:1006F000DF93CF930F92CDB7DEB769830E945F037C
:100700008EEF6981861B8093B4000F90CF91DF91AB
:1007100008955C98FC0112820895FC01808191810A
:10072000009711F41282089580819181019791833D
:1007300080838091B40081508093B20008954F92DD
:100740005F926F927F928F929F92AF92BF92CF9261
:10075000DF92EF92FF920F931F93CF93DF932B01C2
:100760003A014901E70181E80E94A2008F770E94C7
:10077000DA00F601808383E80E94A2000E94DA007A
:10078000888385E80E94A2008F730E94DA00F80136
:10079000808387E80E94A2000E94DA00F40180832F
:1007A00089E80E94A2000E94DA00F30180838BE8AE
:1007B0000E94A2000E94DA00F50180838DE80E9469
:1007C000A2000E94DA00F2018083DF91CF911F9195
:1007D0000F91FF90EF90DF90CF90BF90AF909F90E0
:1007E0008F907F906F905F904F900895FC0185B13E
:1007F000886B85B98581882309F046C08481DF0133
:10080000A80FB11D8C9195B19A7B95B99BB1997147
:100810009BB955B190E09C0175E0359527957A9587
:10082000E1F7422F41709C0164E0359527956A9568
:10083000E1F72470422B452B45B94BB19C01220FA7
:10084000331F2670B3E0880F991FBA95E1F7807EB9
:10085000282B242B2BB98481813041F0813018F072
:10086000823051F406C085B18F7905C085B18F7A89
:1008700002C085B1877B85B9848190E0019663E0F1
:1008800070E00E94F10A84830895CF93DF93FC0106
:100890006A3019F06D3031F403C010821182128277
:1008A000138225C0AEEFB2E020E030E08C918617D5
:1008B00071F48381EF01C80FD11DD901AA0FBB1FAD
:1008C000A250BD4F11969C91119798830BC02F5F3A
:1008D0003F4F12962732310549F78381DF01A80F78
:1008E000B11D1C928F5F63E00E94D10A9383DF9158
:1008F000CF9108950F931F93CF93DF93EC01062FB1
:10090000172F0115110549F0F80161918F01662338
:1009100021F0CE010E944504F4CFDF91CF911F91C9
:100920000F910895EF92FF920F931F93CF93DF9350
:10093000EC018B016DE00E944504C80168EE73E094
:100940000E94DD0A34E6E32EF12CB7010E94DD0A95
:10095000605DCE010E944504C801B7010E94DD0A16
:100960002AE0E22EF12CB7010E94DD0A605DCE0183
:100970000E944504C801B7010E94DD0A682F605D2E
:10098000CE010E944504DF91CF911F910F91FF90FE
:10099000EF900895FC018081880F862B8083803F33
:1009A00019F481818F5F8183089510928F0383B73B
:1009B000817F83BF10928103299A2F9A089591E035
:1009C00090938F0383B7817F83BF299A909381038C
:1009D00085B1886B85B92F980895CF9382E0809375
:1009E0008F03C1E0C093810385B1886B85B988E727
:1009F00093E00E948903299A2F9886E088B9CBB9A1
:100A000083B7817F846083BFCF91089580918303F2
:100A1000882329F081508093830382E00895809198
:100A20008503882329F081508093850381E0089510
:100A300080918703882329F081508093870383E086
:100A4000089580E0089507C08895A895809160007A
:100A500080648093600080917A038823A9F70895C9
:100A6000EF92FF920F931F93609188037091890317
:100A700080E090E02CE434E040E050E00E94B20AD4
:100A80007B018C018EE190E00E945F0BBC0180E055
:100A900090E0A8019701EAE056954795379527958C
:100AA000EA95D1F70E94B20A28EE33E040E050E028
:100AB0000E94040BC9011F910F91FF90EF900895C0
:100AC00012C00E943005BC018CE793E00E949204A2
:100AD0000E9406058823B1F48895A895809160004E
:100AE0008064809360006091900370919103809185
:100AF0009203909193030E947F016A3071058105F2
:100B00009105F8F20895EF92FF920F931F93CF9300
:100B1000DF93EC017B018A0126C0A89580916000DB
:100B20008064809360008CE793E0BE010E94920491
:100B30000E940605823049F0833020F5813099F417
:100B4000C017D10730F4219604C0EC16FD0608F456
:100B500021970E943F0160939003709391038093CB
:100B6000920390939303609190037091910380910D
:100B70009203909193030E947F016A307105810571
:100B8000910558F2CE01DF91CF911F910F91FF9007
:100B9000EF900895FF920F931F93CF93DF93F82E5A
:100BA00010927C0310927D0310927E0310927F03BB
:100BB00010928003109281030E94D5048EE893E086
:100BC00060E071E00E94A20103E010E0C1E2D0E029
:100BD00017C088E793E06AEF0E94780310937903C7
:100BE000009378030E94230588E793E068E70E945A
:100BF0007803D0937903C09378030E942305FA9475
:100C0000FF2039F788E793E00E9489031092870359
:100C1000DF91CF911F910F91FF9008952F923F92F6
:100C20004F925F926F927F929F92AF92BF92CF92BC
:100C3000DF92EF92FF920F931F93DF93CF93CDB785
:100C4000DEB727970FB6F894DEBF0FBECDBF0E9468
:100C50003F0160939003709391038093920390936C
:100C60009303992484E0482E512C4C0E5D1E05E020
:100C7000202E312C2C0E3D1E3E010894611C711C4F
:100C80009BC0A895809160008064809360008CE791
:100C900093E06DE00E944504E92DFF27E7FDF09504
:100CA000EE0FFF1FEC59FD4F608171818CE793E0DF
:100CB0000E947A040E940605823059F0833070F455
:100CC000813009F079C0892D84300CF06BC0939489
:100CD00069C0992009F466C09A9464C08BE793E0D8
:100CE000B201A1019E012A5F3F4F8301B2E0EB2ECA
:100CF000F12CEC0EFD1EA3E0CA2ED12CCC0EDD1E75
:100D0000F7E0AF2EB12CAC0EBD1E0E949F03892DC3
:100D1000823011F183302CF4992049F08130C9F5EB
:100D200010C0892D833011F1843099F529C0898153
:100D300090E060E070E047E150E00E948305898325
:100D400009C08A8190E060E070E04BE350E00E94CF
:100D500083058A831B821DC08E8190E061E070E074
:100D60004FE150E00E9483058E8313C08D8190E097
:100D700061E070E04CE050E00E9483058D8309C083
:100D80008C8190E060E070E043E650E00E948305D3
:100D90008C838C816D814E8129810A81EB80CF808B
:100DA0000E94EC000E943F016093900370939103B6
:100DB00080939203909393036091900370919103B9
:100DC00080919203909193030E947F016A30710594
:100DD0008105910508F455CF27960FB6F894DEBF2C
:100DE0000FBECDBFCF91DF911F910F91FF90EF907C
:100DF000DF90CF90BF90AF909F907F906F905F906B
:100E00004F903F902F900895DF92EF92FF920F93B3
:100E10001F93CF93DF93EC018B017A010E943F0176
:100E20006093900370939103809392039093930344
:100E3000DD245BC0A8958091600080648093600091
:100E40008CE793E06DE00E944504ED2DFF27E7FD60
:100E5000F095EE0FFF1FEA5EFD4F608171818CE718
:100E600093E00E947A040E940605823049F08330A4
:100E700058F48130D1F58D2D82306CF5D3942BC090
:100E8000DD2049F1DA9427C0ED2DE13071F0E23038
:100E9000B9F0DD2001F5888190E060E070E047E185
:100EA00050E00E948305888316C0F801808190E09D
:100EB00060E070E04BE350E00E948305F8010AC057
:100EC000F701808190E060E070E048E250E00E942D
:100ED0008305F70180830E943F0160939003709324
:100EE0009103809392039093930360919003709188
:100EF000910380919203909193030E947F016A3045
:100F000071058105910508F495CFDF91CF911F916F
:100F10000F91FF90EF90DF900895AF92BF92CF9224
:100F2000DF92FF920F931F93CF93DF930E943F01B5
:100F30006093900370939103809392039093930333
:100F4000FF2463C0A8958091600080648093600056
:100F50008CE793E06DE00E9445040F2D112707FDFB
:100F60001095E801CC0FDD1FFE01EC5BFD4F6081A9
:100F700071818CE793E00E947A040E94060582301A
:100F800051F0833060F4813009F03FC08F2D8930FB
:100F900094F5F39430C0FF2071F1FA942CC0C00F87
:100FA000D11F8E01045B1C4F6E010894C11CD11C23
:100FB000B601645B7C4F22E0A22EB12CAC0EBD1EAC
:100FC000A501445B5C4FC8010E940407CE0180501C
:100FD0009040F80160810E94650BC60180509040EE
:100FE000F80161810E94650BC50180509040F801B5
:100FF00062810E94650B0E943F0160939003709391
:101000009103809392039093930360919003709166
:10101000910380919203909193030E947F016A3023
:1010200071058105910508F48DCFDF91CF911F9156
:101030000F91FF90DF90CF90BF90AF900895CF9326
:101040000E94D5040E943F01609390037093910326
:1010500080939203909393030E9406058823E1F303
:10106000C0E05DC0A89580916000806480936000BE
:101070008CE793E06DE00E944504EC2FFF27E7FD2D
:10108000F095EE0FFF1FE050FE4F608171818CE7FD
:1010900093E00E947A040E940605823041F083307A
:1010A00050F48130E1F5C43084F5CF5F2EC0CC23FD
:1010B00061F1C1502AC0C23091F0C3302CF4CC236E
:1010C00041F0C13011F508C0C33061F0C430E9F41B
:1010D0000DC00E94600519C00E940E0616C00E9435
:1010E0008D0713C08AE00E94CA050FC08EE190E010
:1010F0000E945F0B6EEE72E042E553E00E948305B2
:10110000BC018EE190E00E94730B0E943F0160934E
:101110009003709391038093920390939303609153
:1011200090037091910380919203909193030E9498
:101130007F016A3071058105910508F493CFCF9145
:101140000895AF92BF92CF92DF92EF92FF920F93EA
:101150001F93DF93CF93CDB7DEB727970FB6F894E1
:10116000DEBF0FBECDBF8BE793E0BE016C5F7F4F4C
:10117000AE014B5F5F4F9E012A5F3F4F8E010F5FB5
:101180001F4FA2E0EA2EF12CEC0EFD1EF3E0CF2E55
:10119000D12CCC0EDD1EE7E0AE2EB12CAC0EBD1E68
:1011A0000E949F0359814A819E81ECE4F3E020E094
:1011B00030E08081851771F48181841759F4828130
:1011C000882341F0D901A659BC4F6C91691711F0E1
:1011D0009C9307C02F5F3F4F33962A30310549F764
:1011E00080E027960FB6F894DEBF0FBECDBFCF913B
:1011F000DF911F910F91FF90EF90DF90CF90BF9004
:10120000AF90089583E80E94A20085E80E94A200A2
:1012100081E80E94A200609174037091750380912F
:101220007603909177030E947F016E3171058105ED
:101230009105E0F00E943F01609374037093750381
:1012400080937603909377030E94A108882311F07E
:101250000E94CA050E94300521E0883B920734F4C1
:101260008EE893E068ED71E00E94A20108951F925C
:101270000F920FB60F9211242F933F934F935F93CA
:101280006F937F938F939F93AF93BF93CF93EF937E
:10129000FF9380EB86BDC0919403CF5FC09394030E
:1012A00080918F03882331F58CE793E00E94F60349
:1012B000C83020F088E793E00E948D0366B170E0AB
:1012C000627070707595679582E893E00E94CA0419
:1012D00066B170E0647070707595679575956795E7
:1012E00084E893E00E94CA0469B1617086E893E0E3
:1012F0000E94CA04C83090F06091780070E020919C
:10130000790083EC80937A00922F80E0682B792B10
:1013100088E893E00E94440310929403FF91EF91B8
:10132000CF91BF91AF919F918F917F916F915F917D
:101330004F913F912F910F900FBE0F901F901895D6
:101340001F920F920FB60F9211242F933F934F933A
:101350005F936F937F938F939F93AF93BF93EF931D
:10136000FF930E94DF04FF91EF91BF91AF919F9196
:101370008F917F916F915F914F913F912F910F903E
:101380000FBE0F901F9018951F920F920FB60F92DD
:1013900011242F933F934F935F936F937F938F937A
:1013A0009F93AF93BF93EF93FF930E94DF04FF914E
:1013B000EF91BF91AF919F918F917F916F915F91CD
:1013C0004F913F912F910F900FBE0F901F90189546
:1013D0001F920F920FB60F9211242F933F934F93AA
:1013E0005F936F937F938F939F93AF93BF93EF938D
:1013F000FF930E94DF04FF91EF91BF91AF919F9106
:101400008F917F916F915F914F913F912F910F90AD
:101410000FBE0F901F901895CF92EF920F93CF931E
:1014200014BE15BE88E387B98EEF8AB98FEB84B9F5
:1014300026E028B981E08BB915B893B7917F93BFA7
:1014400093B7916093BF80936D0020936C0090914F
:10145000600098619093600098EE9093600094E033
:1014600095BD80936E0080937E0080EC80937C001D
:1014700083EC80937A0080917A0086FDFCCF0E94F5
:10148000D5048CE493E060E070E04EE150E00E940F
:101490004F0B81E80E94A20087FF0AC080E167E04D
:1014A0004AE020E000E0EE2497E0C92E0E94EC0024
:1014B0008EE860E00E94C10080E960E00E94C10007
:1014C0008EE860E80E94C10078940E943F0160931A
:1014D0007403709375038093760390937703C6E04B
:1014E000C09368008895A89580916000806480937F
:1014F000600010926800489B04C086B186708630F8
:1015000029F00E941F080E94ED04EACF0E94020900
:10151000FACF88E793E00E94660310927C03109252
:101520007D0310927E0310927F031092800310922D
:10153000810310928203109283031092840310920D
:1015400085031092860310928703109289031092EC
:10155000880310928B0310928A0310928D031092CD
:101560008C030895629FD001739FF001829FE00D6C
:10157000F11D649FE00DF11D929FF00D839FF00D12
:10158000749FF00D659FF00D9927729FB00DE11DBE
:10159000F91F639FB00DE11DF91FBD01CF0111249B
:1015A0000895991B79E004C0991F961708F0961BBF
:1015B000881F7A95C9F780950895AA1BBB1B51E136
:1015C00007C0AA1FBB1FA617B70710F0A61BB70BB3
:1015D000881F991F5A95A9F780959095BC01CD0158
:1015E000089597FB092E07260AD077FD04D0E5DF82
:1015F00006D000201AF4709561957F4F0895F6F794
:10160000909581959F4F0895A1E21A2EAA1BBB1BAE
:10161000FD010DC0AA1FBB1FEE1FFF1FA217B307BE
:10162000E407F50720F0A21BB30BE40BF50B661FD4
:10163000771F881F991F1A9469F760957095809598
:1016400090959B01AC01BD01CF01089597FB092E38
:1016500005260ED057FD04D0D7DF0AD0001C38F481
:1016600050954095309521953F4F4F4F5F4F0895CE
:10167000F6F790958095709561957F4F8F4F9F4FAE
:101680000895EE0FFF1F0590F491E02D099491113C
:10169000089581568A5108F4805285580895DC01D6
:1016A000CB01FC01F999FECF06C0F2BDE1BDF89A6D
:1016B000319600B40D9241505040B8F70895A8E11A
:1016C000B0E042E050E00C94510B262FF999FECF88
:1016D0001FBA92BD81BD20BD0FB6F894FA9AF99A4F
:1016E0000FBE019608950E94650B272F0C94660B80
:0416F000F894FFCF9C
:1016F40042656574686F76656E202D20467572208C
:10170400456C697365203A20643D342C6F3D352C5B
:10171400623D3136303A3865372C386423372C38FB
:1017240065372C386423372C3865372C3862362CCF
:101734003864372C3863372C3861362C38652C38AC
:10174400612C3863362C3865362C3861362C386277
:10175400362C38652C3867232C3865362C386723AB
:10176400362C3862362C3863372C38652C38612C8B
:101774003865362C3865372C386423372C38653770
:101784002C386423372C3865372C3862362C38646F
:10179400372C3863372C3861362C38652C38612C5B
:1017A4003863362C3865362C3861362C3862362C42
:1017B40038652C3867232C3865362C3863372C3839
:1017C40062362C3261362C00626565703A6F3D37A3
:1017D4002C623D36343A20333261370042415400A2
:1017E400434C4B00534348005453540043414C0072
:1017F400EC01F001F401F801FC01485253004D4999
:101804004E00535256000A020E02120246203100C4
:10181400462032004620330046203400462035005E
:10182400462036004620370046203800462039003E
:10183400463130001C022002240228022C0230020D
:10184400340238023C024002444159004D4F4E00DC
:10185400594541000A020E0258025C026002430626
:1018640001C31501442601C43701454A01465D01FF
:10187400C67201478801C79F0141B801C1D2014224
:10188400EE01430B02C32A02444B02C46E02459389
:101894000246BA02C6E402471003C73F034170037D
:1018A400C1A40342DC03431704C35504449704C48E
:1018B400DD04452705467505C6C805472006C77DCE
:1018C4000641E006C1490742B807432D08C3A908E9
:1018D400442D09C4B909454D0A46EA0AC6900B4786
:1018E400400CC7FA0C41C00DC1910E426F0F20008D
:1018F4002D40303F3106325B334F3466356D367DD3
:101904003707387F396F4177433945794671473D09
:101914004B764C384D375073536D573E5876427C56
:101924004358445E487449044A044E544F5C515C25
:0C19340052505478551C561C596E5A5BDA
:00000001FF
