:100000000C9435000C945D000C945D000C945D0024
:100010000C944C060C9470060C9428060C945D000D
:100020000C945D000C945D000C945D000C945D00DC
:100030000C945D000C945D000C945D000C945D00CC
:100040000C948E050C945D000C945D000C945D0086
:100050000C945D000C945D000C945D000C945D00AC
:100060000C945D000C945D00530A11241FBECFEF69
:10007000D4E0DEBFCDBF13E0A0E0B1E0ECE9F6E1F3
:1000800002C005900D92AC34B107D9F723E0ACE47F
:10009000B3E001C01D92A539B207E1F710E0C5E356
:1000A000D0E004C02197FE010E94150BC433D10794
:1000B000C9F70E94DC090C944C0B0C94000090E0F2
:1000C000282F30E080FF0CC0449A439A359527953D
:1000D000822F973009F043989F5F983089F70895F1
:1000E0004498F3CF4398459808950E94720043982E
:1000F0003C9A4498459A0895CF93C82F0E94750062
:100100008C2F0E945F003C98439828E0C0E08C2F21
:1001100090E095958795C82F3499C068439A439885
:100120002150A9F70E9472003C9A8C2FCF9108951C
:10013000CF93DF93D82FC62F0E9475008D2F0E947A
:100140005F0043988C2F0E945F004398DF91CF910E
:100150000C947200982F92959F708F702AE0929F56
:10016000800D11240895CF92DF92EF92FF92CF93EA
:10017000DF9381E80E947C008F770E94AA00D82F2D
:1001800083E80E947C000E94AA00C82F85E80E9494
:100190007C008F730E94AA00282F30E0A0E1BEE00F
:1001A0000E94FB0A6B017C012C2F30E0ACE3B0E035
:1001B0000E94FB0A6C0D7D1D8E1D9F1D6D0F711D14
:1001C000811D911DDF91CF91FF90EF90DF90CF9037
:1001D0000895CF92DF92EF92FF926B017C010E9413
:1001E000B3006C157D058E059F054CF06C197D09DB
:1001F0008E099F09FF90EF90DF90CF9008956C19C2
:100200007D098E099F0960587E4A8E4F9F4FF2CF1D
:100210001092500383B7817F83BF10926303299AA2
:100220002F9A089591E09093500383B7817F83BF05
:10023000299A9093630385B1886B85B92F980895A7
:1002400082E08093500391E09093630385B1886BC3
:1002500085B95C9810926703299A2F9886E088B92F
:100260009BB983B7817F846083BF089580915D03CC
:1002700081110DC080915B0381110EC080915903E3
:10028000882379F081508093590383E00895815049
:1002900080935D0382E00895815080935B0381E049
:1002A000089580E0089580916703882341F0889540
:1002B000A89580916000806480936000F4CF0895D9
:1002C00080E090E00E94330BFC01209152033091BA
:1002D0005303ACE4B4E00E94FB0A9B01AC018AE04A
:1002E00056954795379527958A95D1F7DF010E9456
:1002F0000A0B28EE33E040E050E00E94BA0AC90140
:10030000089560914C0370914D0380914E0390913C
:100310004F030E94E9006A3071058105910598F448
:100320000E946001BC018EE593E00E949A090E9440
:100330003601811108C08895A8958091600080647D
:1003400080936000DECF0895EF92FF920F931F938A
:10035000CF93DF938B017A01EC0160914C03709194
:100360004D0380914E0390914F030E94E9006A3043
:1003700071058105910538F5A8958091600080642C
:1003800080936000BE018EE593E00E949A090E946E
:100390003601823099F08330B1F08130F1F6CE151C
:1003A000DF0508F421960E94B30060934C0370931C
:1003B0004D0380934E0390934F03CFCF0C171D072F
:1003C00090F72197F0CFCE01DF91CF911F910F9140
:1003D000FF90EF90089583B180741092660310929D
:1003E000650391E0909367035C9A94E09093B40066
:1003F0002AE030E030936603209365039091670311
:10040000992399F01E9B08C0811106C085E693E0F0
:100410000E94460881E0089583B18074A895909168
:100420006000906490936000E9CF85E693E00E94BD
:10043000460880E0089583B180741092660310929C
:10044000650391E0909367035C9A96E89093B400FB
:100450002AE030E0309366032093650390916703B0
:10046000992399F01E9B08C0811106C085E693E090
:100470000E94460881E0089583B18074A895909108
:100480006000906490936000E9CF85E693E00E945D
:10049000460880E00895CF93DF93C82FD62F10929F
:1004A0005E0310925F03109260031092610310923A
:1004B0006203109263030E940801DD2331F06CE0B7
:1004C00072E081E593E00E94B806CC0FCC0FCC23FC
:1004D000A9F00E941B0281110FC05C981092670363
:1004E0002FEF81EE94E0215080409040E1F700C072
:1004F00000000E94EB01EBCFC150E9CF5C98109255
:10050000670310925903DF91CF9108959F92AF92A4
:10051000BF92CF92DF92EF92FF920F931F93CF93F0
:10052000DF9300D000D000D01F92CDB7DEB70E947D
:10053000B30060934C0370934D0380934E039093EC
:100540004F03912C092D000F110B00501F4F60918C
:100550004C0370914D0380914E0390914F030E9484
:10056000E9006A3071058105910508F094C0A895ED
:10057000809160008064809360006DE08EE593E080
:100580000E945309F801608171818EE593E00E9419
:1005900086090E943601823099F08330A9F08130BB
:1005A000B1F6F3E0F9150CF093940E94B300609358
:1005B0004C0370934D0380934E0390934F03C2CF2F
:1005C000992099F39A94F1CFCE0101965C01FE0136
:1005D00035966F0105967C018E01095F1F4F9E01C4
:1005E0002E5F3F4FAE014D5F5F4FBE016C5F7F4F8F
:1005F00084E693E00E94B90892E09916C1F199153A
:100600008CF09920F9F0E1E09E1639F1A980CD80B7
:10061000EE800F812A814B816C8184E693E00E94F9
:100620005008C3CFF3E09F1661F184E09812EECF3B
:100630008C8143E650E070E060E090E00E94A4010D
:100640008C83E4CF8F8147E150E070E060E090E080
:100650000E94A4018F831D82D9CF8E814BE350E08D
:1006600070E060E090E00E94A4018E83F4CF8A8164
:100670004FE150E061E070E090E00E94A4018A83C5
:10068000C5CF8B814CE050E061E070E090E00E94CB
:10069000A4018B83BBCF27960FB6F894DEBF0FBEA5
:1006A000CDBFDF91CF911F910F91FF90EF90DF9021
:1006B000CF90BF90AF909F900895AF92BF92CF928E
:1006C000DF92EF92FF920F931F93CF937C016B0108
:1006D0005A010E94B30060934C0370934D038093C2
:1006E0004E0390934F03C0E00C2F000F110B025EDE
:1006F0001E4F60914C0370914D0380914E03909179
:100700004F030E94E9006A3071058105910508F0E8
:1007100054C0A895809160008064809360006DE073
:100720008EE593E00E945309F801608171818EE5A6
:1007300093E00E9486090E943601823091F0833056
:10074000A1F08130B1F6C2300CF4CF5F0E94B3004B
:1007500060934C0370934D0380934E0390934F032B
:10076000C3CFCC2399F3C150F1CFC13081F0C23057
:10077000C9F0C111EBCFF701808147E150E070E093
:1007800060E090E00E94A401F7018083DFCFF601D2
:1007900080814BE350E070E060E090E00E94A401B3
:1007A000F601F3CFF501808148E250E070E060E0AF
:1007B00090E00E94A401F501E8CFCF911F910F9125
:1007C000FF90EF90DF90CF90BF90AF9008958F9201
:1007D0009F92BF92CF92DF92EF92FF920F931F935F
:1007E000CF93DF930E94B30060934C0370934D034B
:1007F00080934E0390934F03B12C8B2C0B2C000C49
:1008000099088401000F111FE801C65FDE4F609157
:100810004C0370914D0380914E0390914F030E94C1
:10082000E9006A3071058105910508F05DC0A89561
:10083000809160008064809360006DE08EE593E0BD
:100840000E945309688179818EE593E00E948609B0
:100850000E943601823099F08330A9F08130B9F6D8
:1008600088E08B150CF0B3940E94B30060934C03A6
:1008700070934D0380934E0390934F03BECFBB20E4
:1008800099F3BA94F1CF9B2D9802E00111247E01D7
:10089000E2E0EE0EF11C6E01FFEFCF1ADF0AA701B6
:1008A0004A585C4FB6016A587C4FCE018A589C4F1B
:1008B0000E945D03080D191D0A581C4FF801608144
:1008C000CE018E5F9F4F0E94390BF8016181C601F6
:1008D0008E5F9F4F0E94390BF8016281C7018E5FC6
:1008E0009F4F0E94390BC0CFDF91CF911F910F9185
:1008F000FF90EF90DF90CF90BF909F908F900895E2
:100900000F931F93CF930E9408010E94B30060933E
:100910004C0370934D0380934E0390934F030E94BA
:1009200036018823E1F3C0E00C2F000F110B0C5DA2
:100930001E4F60914C0370914D0380914E03909136
:100940004F030E94E9006A3071058105910508F0A6
:1009500055C0A895809160008064809360006DE030
:100960008EE593E00E945309F801608171818EE564
:1009700093E00E9486090E943601823091F0833014
:10098000A1F08130B1F6C4300CF4CF5F0E94B30007
:1009900060934C0370934D0380934E0390934F03E9
:1009A000C3CFCC2399F3C150F1CFC230F9F03CF45E
:1009B000CC23C9F0C13051F70E948602E7CFC33083
:1009C000C1F0C43019F780E090E00E94330B42E59B
:1009D00053E06EEE72E00E94A401BC0180E090E062
:1009E0000E94470BD3CF0E948101D0CF0E94E70322
:1009F000CDCF60E08AE00E944B02C8CFCF911F911B
:100A00000F910895AF92BF92CF92DF92EF92FF9233
:100A10000F931F93CF93DF9300D000D000D01F928D
:100A2000CDB7DEB7CE0101965C0104966C0101964C
:100A30007C018E01095F1F4F9E012E5F3F4FAE016B
:100A40004D5F5F4FBE016C5F7F4F84E693E00E9475
:100A5000B9084F815E819A81E6E7F3E030E020E05B
:100A6000808184131EC0818185131BC082818823ED
:100A7000C1F0D901A459BC4F6C91691791F09C93B6
:100A800027960FB6F894DEBF0FBECDBFDF91CF9192
:100A90001F910F91FF90EF90DF90CF90BF90AF909C
:100AA00008952F5F3F4F33962A303105C9F680E015
:100AB000E7CF83E80E947C0085E80E947C0081E803
:100AC0000E947C00609168037091690380916A03C1
:100AD00090916B030E94E9006E31710581059105CB
:100AE000E0F00E94B3006093680370936903809301
:100AF0006A0390936B030E940205882319F061E05A
:100B00000E944B020E946001883B914034F464EEE5
:100B100072E081E593E00C94B80608951F920F925D
:100B20000FB60F9211242F933F934F935F936F93C0
:100B30007F938F939F93AF93BF93CF93EF93FF9345
:100B400080EB86BDC0919403CF5FC09394038091E6
:100B50005003811124C08EE593E00E940B09C83038
:100B600048F08091650390916603892B09F061C07C
:100B70001092670366B1669561708CE593E00E9400
:100B8000D10966B162FB662760F98AE593E00E94AD
:100B9000D10969B1617088E593E00E94D109809123
:100BA00094038830A0F1909178008091790023EC33
:100BB00020937A0089279827892720915403309120
:100BC0005503820F931F90935503809354032091F4
:100BD0005603309157032F5F3F4F309357032093B5
:100BE00056032034310589F426E0969587952A9599
:100BF000E1F790935303809352031092570310929E
:100C00005603109255031092540310929403FF91CF
:100C1000EF91CF91BF91AF919F918F917F916F9104
:100C20005F914F913F912F910F900FBE0F901F90AA
:100C300018958091650390916603019790936603E0
:100C4000809365038091B40081508093B20092CF6D
:100C50001F920F920FB60F9211242F933F934F9331
:100C60005F936F937F938F939F93AF93BF93EF9314
:100C7000FF930E941201FF91EF91BF91AF919F915D
:100C80008F917F916F915F914F913F912F910F9035
:100C90000FBE0F901F9018951F920F920FB60F92D4
:100CA00011242F933F934F935F936F937F938F9371
:100CB0009F93AF93BF93EF93FF930E942806FF91FA
:100CC000EF91BF91AF919F918F917F916F915F91C4
:100CD0004F913F912F910F900FBE0F901F9018953D
:100CE0001F920F920FB60F9211242F933F934F93A1
:100CF0005F936F937F938F939F93AF93BF93EF9384
:100D0000FF930E942806FF91EF91BF91AF919F91B1
:100D10008F917F916F915F914F913F912F910F90A4
:100D20000FBE0F901F901895DC0190E080E03AE034
:100D3000ED91FC9111973097D1F02081622F605393
:100D4000770BAB016A30710528F02D3359F0203252
:100D500049F00895389FB001399F700D1124CA01E0
:100D6000860F971F31961196FC93EE93E1CF08956D
:100D70002F923F924F925F926F927F928F929F92AB
:100D8000AF92BF92CF92DF92EF92FF920F931F9399
:100D9000CF93DF9300D000D000D0CDB7DEB7CB012A
:100DA0007A836983892B09F458C189819A81DC018E
:100DB0002C91222309F451C101969A8389832A3305
:100DC000A1F70FE310E086E0982EA12C94E0B92E55
:100DD000C12C08C0803219F08C3209F0E6C031967F
:100DE000FA83E983E981FA818081882309F435C196
:100DF0008A3381F783E0282E312CC801B0E0A0E0CF
:100E00008B839C83AD83BE8394E2892E412C29E0A1
:100E1000522E2DE3622E712CE981FA818081882384
:100E200009F41BC18053990B0B2D1C2D0A9728F434
:100E3000CE0101960E9494068C01E980FA80D701C8
:100E40008C91882309F409C1C70101969A8389838B
:100E50008C9190E00E941B0BD82EF7018181882392
:100E600009F4FBC0833239F46894D7F8F2E0EF0E4E
:100E7000F11CFA82E982E981FA8180818E3261F483
:100E8000C801880F991F880F991FB1010E94920A0B
:100E90008B013196FA83E983E981FA81808180535D
:100EA000990BE92CFA2C0A9728F4CE0101960E949E
:100EB00094067C01E981FA8180818E3261F4C80157
:100EC000880F991F880F991FB1010E94920A8B0108
:100ED0003196FA83E983E981FA818081882321F0C0
:100EE0008C32B1F38032A1F360E67AEE80E090E0DC
:100EF0002B813C814D815E810E94DC0ACA01B901CF
:100F0000E2E0660F771F881F991FEA95D1F79801D5
:100F100050E040E00E94DC0A890180E5D81609F41F
:100F200080C095E0E91AF108A4E0EA16F10408F09F
:100F300078C08E9CA0018F9C500D112430E020E0E1
:100F4000C901880F991F820F931FFC01E40FF51F41
:100F5000E458FE4F6081D6125BC08E9CF0018F9CDE
:100F6000F00D1124E80FF91FE458FE4F2181328162
:100F7000109281002115310509F455C050E040E080
:100F8000C301B2010E94BA0A21503109309389008D
:100F9000209388001092850010928400B3E4B093EF
:100FA0008000E9E1E09381003EC0843669F08F362D
:100FB000A9F08236E9F43196FA83E983CE010196ED
:100FC0000E9494068C010ECF3196FA83E983CE01FC
:100FD00001960E949406B82EC92E04CF3196FA834A
:100FE000E983CE0101960E949406982EA92EFACE8E
:100FF000E981FA818081882309F4F4CE8C3209F4E6
:10100000F1CE8A3309F4EECE3196FA83E983F0CF3C
:101010002F5F3F4F2C30310509F092CF30E020E0B8
:10102000A7CF109281000150110938F08FEC97E0A2
:101030000197F1F700C00000F6CF109281001092E6
:1010400089001092880010928000299AA8958091BA
:101050006000806480936000DFCE26960FB6F8941F
:10106000DEBF0FBECDBFDF91CF911F910F91FF90DB
:10107000EF90DF90CF90BF90AF909F908F907F9038
:101080006F905F904F903F902F900895FC011182D8
:10109000108212828091B40081508093B200089532
:1010A000AF92CF92EF92FF920F931F93CF93DF9364
:1010B000D62F142FF22E60E08EE80E949800CAE02E
:1010C0008C2D6C2F0E94860A8295807F682F690F75
:1010D00080E80E9498008E2D6C2F0E94860A8295CF
:1010E000807F682F690F82E80E949800802F6C2F04
:1010F0000E94860A8295807F682F690F84E80E948B
:1011000098008F2D6C2F0E94860A8295807F682F11
:10111000690F86E80E949800812F6C2F0E94860A32
:101120008295807F682F690F88E80E9498008A2D39
:101130006C2F0E94860A8295807F682F690F8AE84B
:101140000E9498008D2F6C2F0E94860A8295807FC6
:10115000682F690F8CE80E94980060E88EE8DF91A4
:10116000CF911F910F91FF90EF90CF90AF900C9483
:1011700098006F927F928F929F92AF92BF92CF9280
:10118000DF92EF92FF920F931F93CF93DF933B0178
:10119000EA01490181E80E947C008F770E94AA0041
:1011A000F601808383E80E947C000E94AA00F70178
:1011B000808385E80E947C008F730E94AA00F8015A
:1011C000808387E80E947C000E94AA00F40180834B
:1011D00089E80E947C000E94AA0088838BE80E9414
:1011E0007C000E94AA00F50180838DE80E947C00AB
:1011F0000E94AA00F3018083DF91CF911F910F918C
:10120000FF90EF90DF90CF90BF90AF909F908F9026
:101210007F906F900895FC0185B1886B85B98581B9
:10122000811136C0A481AE0FBF2FB11D8C9195B135
:101230009A7B95B99BB199719BB935B190E085FBCB
:10124000222720F9AC0164E0559547956A95E1F7AE
:101250004470242B232B25B94BB19C01220F331F43
:101260002670A3E0880F991FAA95E1F7807E822B54
:10127000842B8BB98481813081F058F0823081F0E9
:10128000848190E0019663E070E00E94A60A848366
:10129000089585B18F7985B9F3CF85B18F7AFBCF6A
:1012A00085B1877BF8CFCF93DF93FC016A3049F19A
:1012B0006D3051F1AEE2B1E030E020E08C91681386
:1012C00014C08381EF01C80FD11D220F331FD90134
:1012D000A25DBE4F11969C9198838F5F63E00E9440
:1012E000860A9383DF91CF9108952F5F3F4F129627
:1012F0002732310519F78381DF01A80FB11D1C9238
:10130000ECCF1082118212821382ECCF0F931F93C5
:10131000CF93DF938C01EB01209739F0699166231D
:1013200021F0C8010E945309F7CFDF91CF911F919F
:101330000F910895EF92FF920F931F93CF93DF9336
:10134000EC018B016DE00E945309C80168EE73E067
:101350000E94920A24E6E22EF12CB7010E94920A22
:10136000605DCE010E945309C801B7010E94920A34
:101370003AE0E32EF12CB7010E94920A605DCE01A3
:101380000E945309C801B7010E94920A60E3680FE6
:10139000CE01DF91CF911F910F91FF90EF900C94B0
:1013A0005309FC019081990F692B6083603F19F408
:1013B00081818F5F8183089514BE15BE88E387B94C
:1013C0008EEF8AB98FEB84B926E028B981E08BB91A
:1013D00015B893B7917F93BF93B7916093BF8093F4
:1013E0006D0020936C0098E1909360009FE49093CF
:1013F000600094E095BD80936E0080937E0080EC49
:1014000080937C0083EC80937A0080917A0086FD43
:10141000FCCF0E9408014EE150E062E070E086E7F8
:1014200093E00E94230B81E80E947C0087FF0CC0A0
:1014300087E0A82EC12CE12C00E02AE047E060E123
:1014400084E693E00E94500860E08EE80E949800D5
:1014500060E080E90E94980060E88EE80E949800B1
:1014600078940E94B300609368037093690380933B
:101470006A0390936B03C6E0D7E4C0936800889535
:10148000A895D093600010926800489B09C086B16F
:101490008670863029F40E9459050E942001EDCF04
:1014A0000E948004FACFE1EBF0E010821092B200CB
:1014B0001092B30083E38093B0008CE0808386E8D1
:1014C0008093B400E5E6F3E01182108281E082832C
:1014D0005C9AEEE5F3E0108211821282138214828C
:1014E0001582ECE5F3E010821182EAE5F3E0108268
:1014F0001182E8E5F3E010821182E2E5F3E0118267
:10150000108213821282158214820895991B79E049
:1015100004C0991F961708F0961B881F7A95C9F783
:1015200080950895AA1BBB1B51E107C0AA1FBB1FD2
:10153000A617B70710F0A61BB70B881F991F5A955F
:10154000A9F780959095BC01CD01089597FB072ED2
:1015500016F4009407D077FD09D00E94920A07FC88
:1015600005D03EF4909581959F4F089570956195B3
:101570007F4F0895A1E21A2EAA1BBB1BFD010DC0CF
:10158000AA1FBB1FEE1FFF1FA217B307E407F50733
:1015900020F0A21BB30BE40BF50B661F771F881F0F
:1015A000991F1A9469F760957095809590959B01A5
:1015B000AC01BD01CF010895052E97FB1EF40094E8
:1015C0000E94F30A57FD07D00E94BA0A07FC03D015
:1015D0004EF40C94F30A50954095309521953F4F69
:1015E0004F4F5F4F089590958095709561957F4F0F
:1015F0008F4F9F4F0895A29FB001B39FC001A39F3B
:10160000700D811D1124911DB29F700D811D11243B
:10161000911D08950E94FB0AA59F900DB49F900D07
:10162000A49F800D911D11240895EE0FFF1F0590BA
:10163000F491E02D09949111089581568A5108F48E
:10164000805285580895DC01CB01FC01F999FECF49
:1016500006C0F2BDE1BDF89A319600B40D9241503A
:101660005040B8F70895A8E1B0E042E050E00C9493
:10167000250B262FF999FECF1FBA92BD81BD20BD43
:101680000FB6F894FA9AF99A0FBE019608950E943F
:0C169000390B272F0C943A0BF894FFCF75
:10169C00F802FC020003040308030C0310031403F8
:1016AC0018031C032003240328032C033003F80223
:1016BC00FC02340338033C0340034403480320007A
:1016CC002D40303F3106325B334F3466356D367DFD
:1016DC003707387F396F4177433945794671473D34
:1016EC004B764C384D375073536D573E5876427C81
:1016FC004358445E487449044A044E544F5C515C50
:10170C0052505478551C561C596E5A5B430601C3F3
:10171C001501442601C43701454A01465D01C672D4
:10172C0001478801C79F0141B801C1D20142EE01B6
:10173C00430B02C32A02444B02C46E024593024679
:10174C00BA02C6E402471003C73F03417003C1A4A9
:10175C000342DC03431704C35504449704C4DD045B
:10176C00452705467505C6C805472006C77D0641B1
:10177C00E006C1490742B807432D08C3A908442D08
:10178C0009C4B909454D0A46EA0AC6900B47400CF4
:10179C00C7FA0C41C00DC1910E426F0F42656574C2
:1017AC00686F76656E202D2046757220456C6973C6
:1017BC0065203A20643D342C6F3D352C623D31362A
:1017CC00303A3865372C386423372C3865372C3849
:1017DC006423372C3865372C3862362C3864372C18
:1017EC003863372C3861362C38652C38612C3863CB
:1017FC00362C3865362C3861362C3862362C3865E8
:10180C002C3867232C3865362C386723362C3862F5
:10181C00362C3863372C38652C38612C3865362CCF
:10182C003865372C386423372C3865372C386423CB
:10183C00372C3865372C3862362C3864372C3863A3
:10184C00372C3861362C38652C38612C3863362CA3
:10185C003865362C3861362C3862362C38652C3885
:10186C0067232C3865362C3863372C3862362C328B
:10187C0061362C00626565703A6F3D372C623D36DF
:10188C00343A203332613700485253004D494E00F0
:10189C00444159004D4F4E005945410046203100FE
:1018AC0046203200462033004620340046203500C6
:1018BC0046203600462037004620380046203900A6
:1018CC00463130005352560042415400434C4B00B9
:0C18DC00534348005453540043414C0057
:00000001FF
